{
  "_format": "hh-sol-artifact-1",
  "contractName": "MerkleAirdrop",
  "sourceName": "contracts/MerkleAirdrop.sol",
  "abi": [
    {
      "inputs": [
        {
          "internalType": "contract IERC20",
          "name": "_token",
          "type": "address"
        },
        {
          "internalType": "bytes32",
          "name": "_merkleRoot",
          "type": "bytes32"
        },
        {
          "internalType": "uint256",
          "name": "_claimDeadline",
          "type": "uint256"
        },
        {
          "internalType": "address",
          "name": "initialOwner",
          "type": "address"
        }
      ],
      "stateMutability": "nonpayable",
      "type": "constructor"
    },
    {
      "inputs": [
        {
          "internalType": "address",
          "name": "owner",
          "type": "address"
        }
      ],
      "name": "OwnableInvalidOwner",
      "type": "error"
    },
    {
      "inputs": [
        {
          "internalType": "address",
          "name": "account",
          "type": "address"
        }
      ],
      "name": "OwnableUnauthorizedAccount",
      "type": "error"
    },
    {
      "inputs": [],
      "name": "ReentrancyGuardReentrantCall",
      "type": "error"
    },
    {
      "anonymous": false,
      "inputs": [
        {
          "indexed": true,
          "internalType": "address",
          "name": "account",
          "type": "address"
        },
        {
          "indexed": false,
          "internalType": "uint256",
          "name": "amount",
          "type": "uint256"
        },
        {
          "indexed": false,
          "internalType": "uint256",
          "name": "index",
          "type": "uint256"
        }
      ],
      "name": "Claimed",
      "type": "event"
    },
    {
      "anonymous": false,
      "inputs": [
        {
          "indexed": false,
          "internalType": "uint256",
          "name": "newDeadline",
          "type": "uint256"
        }
      ],
      "name": "DeadlineUpdated",
      "type": "event"
    },
    {
      "anonymous": false,
      "inputs": [
        {
          "indexed": true,
          "internalType": "address",
          "name": "previousOwner",
          "type": "address"
        },
        {
          "indexed": true,
          "internalType": "address",
          "name": "newOwner",
          "type": "address"
        }
      ],
      "name": "OwnershipTransferred",
      "type": "event"
    },
    {
      "inputs": [
        {
          "internalType": "uint256",
          "name": "index",
          "type": "uint256"
        },
        {
          "internalType": "address",
          "name": "account",
          "type": "address"
        },
        {
          "internalType": "uint256",
          "name": "amount",
          "type": "uint256"
        },
        {
          "internalType": "bytes32[]",
          "name": "merkleProof",
          "type": "bytes32[]"
        }
      ],
      "name": "claim",
      "outputs": [],
      "stateMutability": "nonpayable",
      "type": "function"
    },
    {
      "inputs": [],
      "name": "claimDeadline",
      "outputs": [
        {
          "internalType": "uint256",
          "name": "",
          "type": "uint256"
        }
      ],
      "stateMutability": "view",
      "type": "function"
    },
    {
      "inputs": [
        {
          "internalType": "address",
          "name": "",
          "type": "address"
        }
      ],
      "name": "claimed",
      "outputs": [
        {
          "internalType": "bool",
          "name": "",
          "type": "bool"
        }
      ],
      "stateMutability": "view",
      "type": "function"
    },
    {
      "inputs": [
        {
          "internalType": "address",
          "name": "account",
          "type": "address"
        }
      ],
      "name": "getClaimStatus",
      "outputs": [
        {
          "internalType": "bool",
          "name": "",
          "type": "bool"
        }
      ],
      "stateMutability": "view",
      "type": "function"
    },
    {
      "inputs": [],
      "name": "merkleRoot",
      "outputs": [
        {
          "internalType": "bytes32",
          "name": "",
          "type": "bytes32"
        }
      ],
      "stateMutability": "view",
      "type": "function"
    },
    {
      "inputs": [],
      "name": "owner",
      "outputs": [
        {
          "internalType": "address",
          "name": "",
          "type": "address"
        }
      ],
      "stateMutability": "view",
      "type": "function"
    },
    {
      "inputs": [],
      "name": "renounceOwnership",
      "outputs": [],
      "stateMutability": "nonpayable",
      "type": "function"
    },
    {
      "inputs": [],
      "name": "token",
      "outputs": [
        {
          "internalType": "contract IERC20",
          "name": "",
          "type": "address"
        }
      ],
      "stateMutability": "view",
      "type": "function"
    },
    {
      "inputs": [],
      "name": "totalClaimed",
      "outputs": [
        {
          "internalType": "uint256",
          "name": "",
          "type": "uint256"
        }
      ],
      "stateMutability": "view",
      "type": "function"
    },
    {
      "inputs": [
        {
          "internalType": "address",
          "name": "newOwner",
          "type": "address"
        }
      ],
      "name": "transferOwnership",
      "outputs": [],
      "stateMutability": "nonpayable",
      "type": "function"
    },
    {
      "inputs": [
        {
          "internalType": "uint256",
          "name": "_newDeadline",
          "type": "uint256"
        }
      ],
      "name": "updateDeadline",
      "outputs": [],
      "stateMutability": "nonpayable",
      "type": "function"
    },
    {
      "inputs": [],
      "name": "withdrawUnclaimed",
      "outputs": [],
      "stateMutability": "nonpayable",
      "type": "function"
    }
  ],
  "bytecode": "0x60c06040523480156200001157600080fd5b5060405162001994380380620019948339818101604052810190620000379190620002fc565b80600073ffffffffffffffffffffffffffffffffffffffff168173ffffffffffffffffffffffffffffffffffffffff1603620000ad5760006040517f1e4fbdf7000000000000000000000000000000000000000000000000000000008152600401620000a491906200037f565b60405180910390fd5b620000be816200011360201b60201c565b50600180819055508373ffffffffffffffffffffffffffffffffffffffff1660808173ffffffffffffffffffffffffffffffffffffffff16815250508260a0818152505081600481905550505050506200039c565b60008060009054906101000a900473ffffffffffffffffffffffffffffffffffffffff169050816000806101000a81548173ffffffffffffffffffffffffffffffffffffffff021916908373ffffffffffffffffffffffffffffffffffffffff1602179055508173ffffffffffffffffffffffffffffffffffffffff168173ffffffffffffffffffffffffffffffffffffffff167f8be0079c531659141344cd1fd0a4f28419497f9722a3daafe3b4186f6b6457e060405160405180910390a35050565b600080fd5b600073ffffffffffffffffffffffffffffffffffffffff82169050919050565b60006200020982620001dc565b9050919050565b60006200021d82620001fc565b9050919050565b6200022f8162000210565b81146200023b57600080fd5b50565b6000815190506200024f8162000224565b92915050565b6000819050919050565b6200026a8162000255565b81146200027657600080fd5b50565b6000815190506200028a816200025f565b92915050565b6000819050919050565b620002a58162000290565b8114620002b157600080fd5b50565b600081519050620002c5816200029a565b92915050565b620002d681620001fc565b8114620002e257600080fd5b50565b600081519050620002f681620002cb565b92915050565b60008060008060808587031215620003195762000318620001d7565b5b600062000329878288016200023e565b94505060206200033c8782880162000279565b93505060406200034f87828801620002b4565b92505060606200036287828801620002e5565b91505092959194509250565b6200037981620001fc565b82525050565b60006020820190506200039660008301846200036e565b92915050565b60805160a0516115b6620003de600039600081816104700152610684015260008181610547015281816106f6015281816107920152610a4901526115b66000f3fe608060405234801561001057600080fd5b50600436106100b45760003560e01c80638da5cb5b116100715780638da5cb5b14610141578063c884ef831461015f578063c9760f711461018f578063d54ad2a1146101bf578063f2fde38b146101dd578063fc0c546a146101f9576100b4565b80632e7ba6ef146100b95780632eb4a7ab146100d557806333fc56d9146100f35780633ba86c44146100fd57806342af18841461011b578063715018a614610137575b600080fd5b6100d360048036038101906100ce9190610dbf565b610217565b005b6100dd610682565b6040516100ea9190610e60565b60405180910390f35b6100fb6106a6565b005b610105610877565b6040516101129190610e8a565b60405180910390f35b61013560048036038101906101309190610ea5565b61087d565b005b61013f610908565b005b61014961091c565b6040516101569190610ee1565b60405180910390f35b61017960048036038101906101749190610efc565b610945565b6040516101869190610f44565b60405180910390f35b6101a960048036038101906101a49190610efc565b610965565b6040516101b69190610f44565b60405180910390f35b6101c76109bb565b6040516101d49190610e8a565b60405180910390f35b6101f760048036038101906101f29190610efc565b6109c1565b005b610201610a47565b60405161020e9190610fbe565b60405180910390f35b61021f610a6b565b600454421115610264576040517f08c379a000000000000000000000000000000000000000000000000000000000815260040161025b90611036565b60405180910390fd5b600260008573ffffffffffffffffffffffffffffffffffffffff1673ffffffffffffffffffffffffffffffffffffffff16815260200190815260200160002060009054906101000a900460ff16156102f1576040517f08c379a00000000000000000000000000000000000000000000000000000000081526004016102e8906110a2565b60405180910390fd5b3373ffffffffffffffffffffffffffffffffffffffff168473ffffffffffffffffffffffffffffffffffffffff161461035f576040517f08c379a00000000000000000000000000000000000000000000000000000000081526004016103569061110e565b60405180910390fd5b60008460601b604051602001610375919061117b565b604051602081830303815290604052805190602001208460405160200161039c9190610e8a565b60405160208183030381529060405280519060200120876040516020016103c39190610e8a565b604051602081830303815290604052805190602001206040516020016103eb93929190611196565b6040516020818303038152906040528051906020012060405160200161041191906111ee565b604051602081830303815290604052805190602001209050610495838380806020026020016040519081016040528093929190818152602001838360200280828437600081840152601f19601f820116905080830192505050505050507f000000000000000000000000000000000000000000000000000000000000000083610ab1565b6104d4576040517f08c379a00000000000000000000000000000000000000000000000000000000081526004016104cb90611255565b60405180910390fd5b6001600260008773ffffffffffffffffffffffffffffffffffffffff1673ffffffffffffffffffffffffffffffffffffffff16815260200190815260200160002060006101000a81548160ff021916908315150217905550836003600082825461053e91906112a4565b925050819055507f000000000000000000000000000000000000000000000000000000000000000073ffffffffffffffffffffffffffffffffffffffff1663a9059cbb86866040518363ffffffff1660e01b81526004016105a09291906112d8565b6020604051808303816000875af11580156105bf573d6000803e3d6000fd5b505050506040513d601f19601f820116820180604052508101906105e3919061132d565b610622576040517f08c379a0000000000000000000000000000000000000000000000000000000008152600401610619906113a6565b60405180910390fd5b8473ffffffffffffffffffffffffffffffffffffffff167f987d620f307ff6b94d58743cb7a7509f24071586a77759b77c2d4e29f75a2f9a858860405161066a9291906113c6565b60405180910390a25061067b610ac8565b5050505050565b7f000000000000000000000000000000000000000000000000000000000000000081565b6106ae610ad1565b60045442116106f2576040517f08c379a00000000000000000000000000000000000000000000000000000000081526004016106e99061143b565b60405180910390fd5b60007f000000000000000000000000000000000000000000000000000000000000000073ffffffffffffffffffffffffffffffffffffffff166370a08231306040518263ffffffff1660e01b815260040161074d9190610ee1565b602060405180830381865afa15801561076a573d6000803e3d6000fd5b505050506040513d601f19601f8201168201806040525081019061078e9190611470565b90507f000000000000000000000000000000000000000000000000000000000000000073ffffffffffffffffffffffffffffffffffffffff1663a9059cbb6107d461091c565b836040518363ffffffff1660e01b81526004016107f29291906112d8565b6020604051808303816000875af1158015610811573d6000803e3d6000fd5b505050506040513d601f19601f82011682018060405250810190610835919061132d565b610874576040517f08c379a000000000000000000000000000000000000000000000000000000000815260040161086b906113a6565b60405180910390fd5b50565b60045481565b610885610ad1565b4281116108c7576040517f08c379a00000000000000000000000000000000000000000000000000000000081526004016108be906114e9565b60405180910390fd5b806004819055507fdb00f0341e024be397e058a193a27b85cc3e7f921640be77ddf155c9f8d37c5a816040516108fd9190610e8a565b60405180910390a150565b610910610ad1565b61091a6000610b58565b565b60008060009054906101000a900473ffffffffffffffffffffffffffffffffffffffff16905090565b60026020528060005260406000206000915054906101000a900460ff1681565b6000600260008373ffffffffffffffffffffffffffffffffffffffff1673ffffffffffffffffffffffffffffffffffffffff16815260200190815260200160002060009054906101000a900460ff169050919050565b60035481565b6109c9610ad1565b600073ffffffffffffffffffffffffffffffffffffffff168173ffffffffffffffffffffffffffffffffffffffff1603610a3b5760006040517f1e4fbdf7000000000000000000000000000000000000000000000000000000008152600401610a329190610ee1565b60405180910390fd5b610a4481610b58565b50565b7f000000000000000000000000000000000000000000000000000000000000000081565b600260015403610aa7576040517f3ee5aeb500000000000000000000000000000000000000000000000000000000815260040160405180910390fd5b6002600181905550565b600082610abe8584610c1c565b1490509392505050565b60018081905550565b610ad9610c72565b73ffffffffffffffffffffffffffffffffffffffff16610af761091c565b73ffffffffffffffffffffffffffffffffffffffff1614610b5657610b1a610c72565b6040517f118cdaa7000000000000000000000000000000000000000000000000000000008152600401610b4d9190610ee1565b60405180910390fd5b565b60008060009054906101000a900473ffffffffffffffffffffffffffffffffffffffff169050816000806101000a81548173ffffffffffffffffffffffffffffffffffffffff021916908373ffffffffffffffffffffffffffffffffffffffff1602179055508173ffffffffffffffffffffffffffffffffffffffff168173ffffffffffffffffffffffffffffffffffffffff167f8be0079c531659141344cd1fd0a4f28419497f9722a3daafe3b4186f6b6457e060405160405180910390a35050565b60008082905060005b8451811015610c6757610c5282868381518110610c4557610c44611509565b5b6020026020010151610c7a565b91508080610c5f90611538565b915050610c25565b508091505092915050565b600033905090565b6000818310610c9257610c8d8284610ca5565b610c9d565b610c9c8383610ca5565b5b905092915050565b600082600052816020526040600020905092915050565b600080fd5b600080fd5b6000819050919050565b610cd981610cc6565b8114610ce457600080fd5b50565b600081359050610cf681610cd0565b92915050565b600073ffffffffffffffffffffffffffffffffffffffff82169050919050565b6000610d2782610cfc565b9050919050565b610d3781610d1c565b8114610d4257600080fd5b50565b600081359050610d5481610d2e565b92915050565b600080fd5b600080fd5b600080fd5b60008083601f840112610d7f57610d7e610d5a565b5b8235905067ffffffffffffffff811115610d9c57610d9b610d5f565b5b602083019150836020820283011115610db857610db7610d64565b5b9250929050565b600080600080600060808688031215610ddb57610dda610cbc565b5b6000610de988828901610ce7565b9550506020610dfa88828901610d45565b9450506040610e0b88828901610ce7565b935050606086013567ffffffffffffffff811115610e2c57610e2b610cc1565b5b610e3888828901610d69565b92509250509295509295909350565b6000819050919050565b610e5a81610e47565b82525050565b6000602082019050610e756000830184610e51565b92915050565b610e8481610cc6565b82525050565b6000602082019050610e9f6000830184610e7b565b92915050565b600060208284031215610ebb57610eba610cbc565b5b6000610ec984828501610ce7565b91505092915050565b610edb81610d1c565b82525050565b6000602082019050610ef66000830184610ed2565b92915050565b600060208284031215610f1257610f11610cbc565b5b6000610f2084828501610d45565b91505092915050565b60008115159050919050565b610f3e81610f29565b82525050565b6000602082019050610f596000830184610f35565b92915050565b6000819050919050565b6000610f84610f7f610f7a84610cfc565b610f5f565b610cfc565b9050919050565b6000610f9682610f69565b9050919050565b6000610fa882610f8b565b9050919050565b610fb881610f9d565b82525050565b6000602082019050610fd36000830184610faf565b92915050565b600082825260208201905092915050565b7f436c61696d20706572696f6420656e6465640000000000000000000000000000600082015250565b6000611020601283610fd9565b915061102b82610fea565b602082019050919050565b6000602082019050818103600083015261104f81611013565b9050919050565b7f416c726561647920636c61696d65640000000000000000000000000000000000600082015250565b600061108c600f83610fd9565b915061109782611056565b602082019050919050565b600060208201905081810360008301526110bb8161107f565b9050919050565b7f43616e206f6e6c7920636c61696d20666f7220796f757273656c660000000000600082015250565b60006110f8601b83610fd9565b9150611103826110c2565b602082019050919050565b60006020820190508181036000830152611127816110eb565b9050919050565b60007fffffffffffffffffffffffffffffffffffffffff00000000000000000000000082169050919050565b6000819050919050565b6111756111708261112e565b61115a565b82525050565b60006111878284611164565b60148201915081905092915050565b60006060820190506111ab6000830186610e51565b6111b86020830185610e51565b6111c56040830184610e51565b949350505050565b6000819050919050565b6111e86111e382610e47565b6111cd565b82525050565b60006111fa82846111d7565b60208201915081905092915050565b7f496e76616c6964206d65726b6c652070726f6f66000000000000000000000000600082015250565b600061123f601483610fd9565b915061124a82611209565b602082019050919050565b6000602082019050818103600083015261126e81611232565b9050919050565b7f4e487b7100000000000000000000000000000000000000000000000000000000600052601160045260246000fd5b60006112af82610cc6565b91506112ba83610cc6565b92508282019050808211156112d2576112d1611275565b5b92915050565b60006040820190506112ed6000830185610ed2565b6112fa6020830184610e7b565b9392505050565b61130a81610f29565b811461131557600080fd5b50565b60008151905061132781611301565b92915050565b60006020828403121561134357611342610cbc565b5b600061135184828501611318565b91505092915050565b7f5472616e73666572206661696c65640000000000000000000000000000000000600082015250565b6000611390600f83610fd9565b915061139b8261135a565b602082019050919050565b600060208201905081810360008301526113bf81611383565b9050919050565b60006040820190506113db6000830185610e7b565b6113e86020830184610e7b565b9392505050565b7f436c61696d20706572696f64206e6f7420656e64656400000000000000000000600082015250565b6000611425601683610fd9565b9150611430826113ef565b602082019050919050565b6000602082019050818103600083015261145481611418565b9050919050565b60008151905061146a81610cd0565b92915050565b60006020828403121561148657611485610cbc565b5b60006114948482850161145b565b91505092915050565b7f446561646c696e65206d75737420626520696e20667574757265000000000000600082015250565b60006114d3601a83610fd9565b91506114de8261149d565b602082019050919050565b60006020820190508181036000830152611502816114c6565b9050919050565b7f4e487b7100000000000000000000000000000000000000000000000000000000600052603260045260246000fd5b600061154382610cc6565b91507fffffffffffffffffffffffffffffffffffffffffffffffffffffffffffffffff820361157557611574611275565b5b60018201905091905056fea2646970667358221220f56e4b62519f0957fd0e9773f634a6f3da3eb4580e1961b3aff18425e732b8ab64736f6c63430008140033",
  "linkReferences": {},
  "deployedLinkReferences": {}
}